{
  "_format": "hh3-artifact-1",
  "contractName": "RepRegistry",
  "sourceName": "src/RepRegistry.sol",
  "abi": [
    {
      "inputs": [],
      "name": "AlreadyAttested",
      "type": "error"
    },
    {
      "inputs": [],
      "name": "EmptyCommitment",
      "type": "error"
    },
    {
      "inputs": [],
      "name": "InvalidDuration",
      "type": "error"
    },
    {
      "inputs": [],
      "name": "InvalidOwnership",
      "type": "error"
    },
    {
      "anonymous": false,
      "inputs": [
        {
          "indexed": true,
          "internalType": "address",
          "name": "developer",
          "type": "address"
        },
        {
          "indexed": true,
          "internalType": "bytes32",
          "name": "commitment",
          "type": "bytes32"
        },
        {
          "indexed": false,
          "internalType": "uint32",
          "name": "focusedSeconds",
          "type": "uint32"
        },
        {
          "indexed": false,
          "internalType": "uint16",
          "name": "testRuns",
          "type": "uint16"
        },
        {
          "indexed": false,
          "internalType": "uint16",
          "name": "debugLoops",
          "type": "uint16"
        },
        {
          "indexed": false,
          "internalType": "uint8",
          "name": "ownership",
          "type": "uint8"
        },
        {
          "indexed": false,
          "internalType": "uint64",
          "name": "completedAt",
          "type": "uint64"
        }
      ],
      "name": "RepAttested",
      "type": "event"
    },
    {
      "inputs": [
        {
          "internalType": "bytes32",
          "name": "commitment",
          "type": "bytes32"
        },
        {
          "internalType": "uint32",
          "name": "focusedSeconds",
          "type": "uint32"
        },
        {
          "internalType": "uint16",
          "name": "testRuns",
          "type": "uint16"
        },
        {
          "internalType": "uint16",
          "name": "debugLoops",
          "type": "uint16"
        },
        {
          "internalType": "uint8",
          "name": "ownership",
          "type": "uint8"
        }
      ],
      "name": "attest",
      "outputs": [],
      "stateMutability": "nonpayable",
      "type": "function"
    },
    {
      "inputs": [
        {
          "internalType": "bytes32",
          "name": "commitment",
          "type": "bytes32"
        }
      ],
      "name": "attestorOf",
      "outputs": [
        {
          "internalType": "address",
          "name": "developer",
          "type": "address"
        }
      ],
      "stateMutability": "view",
      "type": "function"
    },
    {
      "inputs": [
        {
          "internalType": "address",
          "name": "developer",
          "type": "address"
        }
      ],
      "name": "repCount",
      "outputs": [
        {
          "internalType": "uint64",
          "name": "count",
          "type": "uint64"
        }
      ],
      "stateMutability": "view",
      "type": "function"
    }
  ],
  "bytecode": "0x6080604052348015600e575f5ffd5b5061072a8061001c5f395ff3fe608060405234801561000f575f5ffd5b506004361061003f575f3560e01c806323753a2614610043578063c015e9c614610073578063d44d504f1461008f575b5f5ffd5b61005d600480360381019061005891906103ea565b6100bf565b60405161006a9190610454565b60405180910390f35b61008d60048036038101906100889190610513565b6100ee565b005b6100a960048036038101906100a491906105b4565b61038f565b6040516100b69190610601565b60405180910390f35b5f602052805f5260405f205f915054906101000a900473ffffffffffffffffffffffffffffffffffffffff1681565b5f5f1b8503610129576040517faac1fcc600000000000000000000000000000000000000000000000000000000815260040160405180910390fd5b5f73ffffffffffffffffffffffffffffffffffffffff165f5f8781526020019081526020015f205f9054906101000a900473ffffffffffffffffffffffffffffffffffffffff1673ffffffffffffffffffffffffffffffffffffffff16146101bd576040517f35d9080500000000000000000000000000000000000000000000000000000000815260040160405180910390fd5b5f8463ffffffff1614806101d95750620151808463ffffffff16115b15610210576040517f7616640100000000000000000000000000000000000000000000000000000000815260040160405180910390fd5b60018160ff161080610225575060038160ff16115b1561025c576040517f78fc174800000000000000000000000000000000000000000000000000000000815260040160405180910390fd5b335f5f8781526020019081526020015f205f6101000a81548173ffffffffffffffffffffffffffffffffffffffff021916908373ffffffffffffffffffffffffffffffffffffffff16021790555060015f3373ffffffffffffffffffffffffffffffffffffffff1673ffffffffffffffffffffffffffffffffffffffff1681526020019081526020015f205f81819054906101000a900467ffffffffffffffff168092919061030a90610647565b91906101000a81548167ffffffffffffffff021916908367ffffffffffffffff16021790555050843373ffffffffffffffffffffffffffffffffffffffff167febd88f7cf345d6df536610478a17e33331295b3ccf63b0f7ff9257cc7b06291b86868686426040516103809594939291906106a3565b60405180910390a35050505050565b6001602052805f5260405f205f915054906101000a900467ffffffffffffffff1681565b5f5ffd5b5f819050919050565b6103c9816103b7565b81146103d3575f5ffd5b50565b5f813590506103e4816103c0565b92915050565b5f602082840312156103ff576103fe6103b3565b5b5f61040c848285016103d6565b91505092915050565b5f73ffffffffffffffffffffffffffffffffffffffff82169050919050565b5f61043e82610415565b9050919050565b61044e81610434565b82525050565b5f6020820190506104675f830184610445565b92915050565b5f63ffffffff82169050919050565b6104858161046d565b811461048f575f5ffd5b50565b5f813590506104a08161047c565b92915050565b5f61ffff82169050919050565b6104bc816104a6565b81146104c6575f5ffd5b50565b5f813590506104d7816104b3565b92915050565b5f60ff82169050919050565b6104f2816104dd565b81146104fc575f5ffd5b50565b5f8135905061050d816104e9565b92915050565b5f5f5f5f5f60a0868803121561052c5761052b6103b3565b5b5f610539888289016103d6565b955050602061054a88828901610492565b945050604061055b888289016104c9565b935050606061056c888289016104c9565b925050608061057d888289016104ff565b9150509295509295909350565b61059381610434565b811461059d575f5ffd5b50565b5f813590506105ae8161058a565b92915050565b5f602082840312156105c9576105c86103b3565b5b5f6105d6848285016105a0565b91505092915050565b5f67ffffffffffffffff82169050919050565b6105fb816105df565b82525050565b5f6020820190506106145f8301846105f2565b92915050565b7f4e487b71000000000000000000000000000000000000000000000000000000005f52601160045260245ffd5b5f610651826105df565b915067ffffffffffffffff820361066b5761066a61061a565b5b600182019050919050565b61067f8161046d565b82525050565b61068e816104a6565b82525050565b61069d816104dd565b82525050565b5f60a0820190506106b65f830188610676565b6106c36020830187610685565b6106d06040830186610685565b6106dd6060830185610694565b6106ea60808301846105f2565b969550505050505056fea2646970667358221220879954f57d21cc1a3f98f9fb526ee6380e0a98b3163b34ec00efa2739f5d07c964736f6c634300081c0033",
  "linkReferences": {},
  "deployedLinkReferences": {},
  "immutableReferences": {},
  "inputSourceName": "project/src/RepRegistry.sol",
  "buildInfoId": "solc-0_8_28-ef5cc6963341dbfe72c6b6ab01cce6e77fa592db"
}