{"project/src/RepRegistry.sol":{"RepRegistry":{"abi":[{"inputs":[],"name":"AlreadyAttested","type":"error"},{"inputs":[],"name":"EmptyCommitment","type":"error"},{"inputs":[],"name":"InvalidDuration","type":"error"},{"inputs":[],"name":"InvalidOwnership","type":"error"},{"anonymous":false,"inputs":[{"indexed":true,"internalType":"address","name":"developer","type":"address"},{"indexed":true,"internalType":"bytes32","name":"commitment","type":"bytes32"},{"indexed":false,"internalType":"uint32","name":"focusedSeconds","type":"uint32"},{"indexed":false,"internalType":"uint16","name":"testRuns","type":"uint16"},{"indexed":false,"internalType":"uint16","name":"debugLoops","type":"uint16"},{"indexed":false,"internalType":"uint8","name":"ownership","type":"uint8"},{"indexed":false,"internalType":"uint64","name":"completedAt","type":"uint64"}],"name":"RepAttested","type":"event"},{"inputs":[{"internalType":"bytes32","name":"commitment","type":"bytes32"},{"internalType":"uint32","name":"focusedSeconds","type":"uint32"},{"internalType":"uint16","name":"testRuns","type":"uint16"},{"internalType":"uint16","name":"debugLoops","type":"uint16"},{"internalType":"uint8","name":"ownership","type":"uint8"}],"name":"attest","outputs":[],"stateMutability":"nonpayable","type":"function"},{"inputs":[{"internalType":"bytes32","name":"commitment","type":"bytes32"}],"name":"attestorOf","outputs":[{"internalType":"address","name":"developer","type":"address"}],"stateMutability":"view","type":"function"},{"inputs":[{"internalType":"address","name":"developer","type":"address"}],"name":"repCount","outputs":[{"internalType":"uint64","name":"count","type":"uint64"}],"stateMutability":"view","type":"function"}],"evm":{"bytecode":{"linkReferences":{},"object":"6080604052348015600e575f5ffd5b5061072a8061001c5f395ff3fe608060405234801561000f575f5ffd5b506004361061003f575f3560e01c806323753a2614610043578063c015e9c614610073578063d44d504f1461008f575b5f5ffd5b61005d600480360381019061005891906103ea565b6100bf565b60405161006a9190610454565b60405180910390f35b61008d60048036038101906100889190610513565b6100ee565b005b6100a960048036038101906100a491906105b4565b61038f565b6040516100b69190610601565b60405180910390f35b5f602052805f5260405f205f915054906101000a900473ffffffffffffffffffffffffffffffffffffffff1681565b5f5f1b8503610129576040517faac1fcc600000000000000000000000000000000000000000000000000000000815260040160405180910390fd5b5f73ffffffffffffffffffffffffffffffffffffffff165f5f8781526020019081526020015f205f9054906101000a900473ffffffffffffffffffffffffffffffffffffffff1673ffffffffffffffffffffffffffffffffffffffff16146101bd576040517f35d9080500000000000000000000000000000000000000000000000000000000815260040160405180910390fd5b5f8463ffffffff1614806101d95750620151808463ffffffff16115b15610210576040517f7616640100000000000000000000000000000000000000000000000000000000815260040160405180910390fd5b60018160ff161080610225575060038160ff16115b1561025c576040517f78fc174800000000000000000000000000000000000000000000000000000000815260040160405180910390fd5b335f5f8781526020019081526020015f205f6101000a81548173ffffffffffffffffffffffffffffffffffffffff021916908373ffffffffffffffffffffffffffffffffffffffff16021790555060015f3373ffffffffffffffffffffffffffffffffffffffff1673ffffffffffffffffffffffffffffffffffffffff1681526020019081526020015f205f81819054906101000a900467ffffffffffffffff168092919061030a90610647565b91906101000a81548167ffffffffffffffff021916908367ffffffffffffffff16021790555050843373ffffffffffffffffffffffffffffffffffffffff167febd88f7cf345d6df536610478a17e33331295b3ccf63b0f7ff9257cc7b06291b86868686426040516103809594939291906106a3565b60405180910390a35050505050565b6001602052805f5260405f205f915054906101000a900467ffffffffffffffff1681565b5f5ffd5b5f819050919050565b6103c9816103b7565b81146103d3575f5ffd5b50565b5f813590506103e4816103c0565b92915050565b5f602082840312156103ff576103fe6103b3565b5b5f61040c848285016103d6565b91505092915050565b5f73ffffffffffffffffffffffffffffffffffffffff82169050919050565b5f61043e82610415565b9050919050565b61044e81610434565b82525050565b5f6020820190506104675f830184610445565b92915050565b5f63ffffffff82169050919050565b6104858161046d565b811461048f575f5ffd5b50565b5f813590506104a08161047c565b92915050565b5f61ffff82169050919050565b6104bc816104a6565b81146104c6575f5ffd5b50565b5f813590506104d7816104b3565b92915050565b5f60ff82169050919050565b6104f2816104dd565b81146104fc575f5ffd5b50565b5f8135905061050d816104e9565b92915050565b5f5f5f5f5f60a0868803121561052c5761052b6103b3565b5b5f610539888289016103d6565b955050602061054a88828901610492565b945050604061055b888289016104c9565b935050606061056c888289016104c9565b925050608061057d888289016104ff565b9150509295509295909350565b61059381610434565b811461059d575f5ffd5b50565b5f813590506105ae8161058a565b92915050565b5f602082840312156105c9576105c86103b3565b5b5f6105d6848285016105a0565b91505092915050565b5f67ffffffffffffffff82169050919050565b6105fb816105df565b82525050565b5f6020820190506106145f8301846105f2565b92915050565b7f4e487b71000000000000000000000000000000000000000000000000000000005f52601160045260245ffd5b5f610651826105df565b915067ffffffffffffffff820361066b5761066a61061a565b5b600182019050919050565b61067f8161046d565b82525050565b61068e816104a6565b82525050565b61069d816104dd565b82525050565b5f60a0820190506106b65f830188610676565b6106c36020830187610685565b6106d06040830186610685565b6106dd6060830185610694565b6106ea60808301846105f2565b969550505050505056fea2646970667358221220879954f57d21cc1a3f98f9fb526ee6380e0a98b3163b34ec00efa2739f5d07c964736f6c634300081c0033","opcodes":"PUSH1 0x80 PUSH1 0x40 MSTORE CALLVALUE DUP1 ISZERO PUSH1 0xE JUMPI PUSH0 PUSH0 REVERT JUMPDEST POP PUSH2 0x72A DUP1 PUSH2 0x1C PUSH0 CODECOPY PUSH0 RETURN INVALID PUSH1 0x80 PUSH1 0x40 MSTORE CALLVALUE DUP1 ISZERO PUSH2 0xF JUMPI PUSH0 PUSH0 REVERT JUMPDEST POP PUSH1 0x4 CALLDATASIZE LT PUSH2 0x3F JUMPI PUSH0 CALLDATALOAD PUSH1 0xE0 SHR DUP1 PUSH4 0x23753A26 EQ PUSH2 0x43 JUMPI DUP1 PUSH4 0xC015E9C6 EQ PUSH2 0x73 JUMPI DUP1 PUSH4 0xD44D504F EQ PUSH2 0x8F JUMPI JUMPDEST PUSH0 PUSH0 REVERT JUMPDEST PUSH2 0x5D PUSH1 0x4 DUP1 CALLDATASIZE SUB DUP2 ADD SWAP1 PUSH2 0x58 SWAP2 SWAP1 PUSH2 0x3EA JUMP JUMPDEST PUSH2 0xBF JUMP JUMPDEST PUSH1 0x40 MLOAD PUSH2 0x6A SWAP2 SWAP1 PUSH2 0x454 JUMP JUMPDEST PUSH1 0x40 MLOAD DUP1 SWAP2 SUB SWAP1 RETURN JUMPDEST PUSH2 0x8D PUSH1 0x4 DUP1 CALLDATASIZE SUB DUP2 ADD SWAP1 PUSH2 0x88 SWAP2 SWAP1 PUSH2 0x513 JUMP JUMPDEST PUSH2 0xEE JUMP JUMPDEST STOP JUMPDEST PUSH2 0xA9 PUSH1 0x4 DUP1 CALLDATASIZE SUB DUP2 ADD SWAP1 PUSH2 0xA4 SWAP2 SWAP1 PUSH2 0x5B4 JUMP JUMPDEST PUSH2 0x38F JUMP JUMPDEST PUSH1 0x40 MLOAD PUSH2 0xB6 SWAP2 SWAP1 PUSH2 0x601 JUMP JUMPDEST PUSH1 0x40 MLOAD DUP1 SWAP2 SUB SWAP1 RETURN JUMPDEST PUSH0 PUSH1 0x20 MSTORE DUP1 PUSH0 MSTORE PUSH1 0x40 PUSH0 KECCAK256 PUSH0 SWAP2 POP SLOAD SWAP1 PUSH2 0x100 EXP SWAP1 DIV PUSH20 0xFFFFFFFFFFFFFFFFFFFFFFFFFFFFFFFFFFFFFFFF AND DUP2 JUMP JUMPDEST PUSH0 PUSH0 SHL DUP6 SUB PUSH2 0x129 JUMPI PUSH1 0x40 MLOAD PUSH32 0xAAC1FCC600000000000000000000000000000000000000000000000000000000 DUP2 MSTORE PUSH1 0x4 ADD PUSH1 0x40 MLOAD DUP1 SWAP2 SUB SWAP1 REVERT JUMPDEST PUSH0 PUSH20 0xFFFFFFFFFFFFFFFFFFFFFFFFFFFFFFFFFFFFFFFF AND PUSH0 PUSH0 DUP8 DUP2 MSTORE PUSH1 0x20 ADD SWAP1 DUP2 MSTORE PUSH1 0x20 ADD PUSH0 KECCAK256 PUSH0 SWAP1 SLOAD SWAP1 PUSH2 0x100 EXP SWAP1 DIV PUSH20 0xFFFFFFFFFFFFFFFFFFFFFFFFFFFFFFFFFFFFFFFF AND PUSH20 0xFFFFFFFFFFFFFFFFFFFFFFFFFFFFFFFFFFFFFFFF AND EQ PUSH2 0x1BD JUMPI PUSH1 0x40 MLOAD PUSH32 0x35D9080500000000000000000000000000000000000000000000000000000000 DUP2 MSTORE PUSH1 0x4 ADD PUSH1 0x40 MLOAD DUP1 SWAP2 SUB SWAP1 REVERT JUMPDEST PUSH0 DUP5 PUSH4 0xFFFFFFFF AND EQ DUP1 PUSH2 0x1D9 JUMPI POP PUSH3 0x15180 DUP5 PUSH4 0xFFFFFFFF AND GT JUMPDEST ISZERO PUSH2 0x210 JUMPI PUSH1 0x40 MLOAD PUSH32 0x7616640100000000000000000000000000000000000000000000000000000000 DUP2 MSTORE PUSH1 0x4 ADD PUSH1 0x40 MLOAD DUP1 SWAP2 SUB SWAP1 REVERT JUMPDEST PUSH1 0x1 DUP2 PUSH1 0xFF AND LT DUP1 PUSH2 0x225 JUMPI POP PUSH1 0x3 DUP2 PUSH1 0xFF AND GT JUMPDEST ISZERO PUSH2 0x25C JUMPI PUSH1 0x40 MLOAD PUSH32 0x78FC174800000000000000000000000000000000000000000000000000000000 DUP2 MSTORE PUSH1 0x4 ADD PUSH1 0x40 MLOAD DUP1 SWAP2 SUB SWAP1 REVERT JUMPDEST CALLER PUSH0 PUSH0 DUP8 DUP2 MSTORE PUSH1 0x20 ADD SWAP1 DUP2 MSTORE PUSH1 0x20 ADD PUSH0 KECCAK256 PUSH0 PUSH2 0x100 EXP DUP2 SLOAD DUP2 PUSH20 0xFFFFFFFFFFFFFFFFFFFFFFFFFFFFFFFFFFFFFFFF MUL NOT AND SWAP1 DUP4 PUSH20 0xFFFFFFFFFFFFFFFFFFFFFFFFFFFFFFFFFFFFFFFF AND MUL OR SWAP1 SSTORE POP PUSH1 0x1 PUSH0 CALLER PUSH20 0xFFFFFFFFFFFFFFFFFFFFFFFFFFFFFFFFFFFFFFFF AND PUSH20 0xFFFFFFFFFFFFFFFFFFFFFFFFFFFFFFFFFFFFFFFF AND DUP2 MSTORE PUSH1 0x20 ADD SWAP1 DUP2 MSTORE PUSH1 0x20 ADD PUSH0 KECCAK256 PUSH0 DUP2 DUP2 SWAP1 SLOAD SWAP1 PUSH2 0x100 EXP SWAP1 DIV PUSH8 0xFFFFFFFFFFFFFFFF AND DUP1 SWAP3 SWAP2 SWAP1 PUSH2 0x30A SWAP1 PUSH2 0x647 JUMP JUMPDEST SWAP2 SWAP1 PUSH2 0x100 EXP DUP2 SLOAD DUP2 PUSH8 0xFFFFFFFFFFFFFFFF MUL NOT AND SWAP1 DUP4 PUSH8 0xFFFFFFFFFFFFFFFF AND MUL OR SWAP1 SSTORE POP POP DUP5 CALLER PUSH20 0xFFFFFFFFFFFFFFFFFFFFFFFFFFFFFFFFFFFFFFFF AND PUSH32 0xEBD88F7CF345D6DF536610478A17E33331295B3CCF63B0F7FF9257CC7B06291B DUP7 DUP7 DUP7 DUP7 TIMESTAMP PUSH1 0x40 MLOAD PUSH2 0x380 SWAP6 SWAP5 SWAP4 SWAP3 SWAP2 SWAP1 PUSH2 0x6A3 JUMP JUMPDEST PUSH1 0x40 MLOAD DUP1 SWAP2 SUB SWAP1 LOG3 POP POP POP POP POP JUMP JUMPDEST PUSH1 0x1 PUSH1 0x20 MSTORE DUP1 PUSH0 MSTORE PUSH1 0x40 PUSH0 KECCAK256 PUSH0 SWAP2 POP SLOAD SWAP1 PUSH2 0x100 EXP SWAP1 DIV PUSH8 0xFFFFFFFFFFFFFFFF AND DUP2 JUMP JUMPDEST PUSH0 PUSH0 REVERT JUMPDEST PUSH0 DUP2 SWAP1 POP SWAP2 SWAP1 POP JUMP JUMPDEST PUSH2 0x3C9 DUP2 PUSH2 0x3B7 JUMP JUMPDEST DUP2 EQ PUSH2 0x3D3 JUMPI PUSH0 PUSH0 REVERT JUMPDEST POP JUMP JUMPDEST PUSH0 DUP2 CALLDATALOAD SWAP1 POP PUSH2 0x3E4 DUP2 PUSH2 0x3C0 JUMP JUMPDEST SWAP3 SWAP2 POP POP JUMP JUMPDEST PUSH0 PUSH1 0x20 DUP3 DUP5 SUB SLT ISZERO PUSH2 0x3FF JUMPI PUSH2 0x3FE PUSH2 0x3B3 JUMP JUMPDEST JUMPDEST PUSH0 PUSH2 0x40C DUP5 DUP3 DUP6 ADD PUSH2 0x3D6 JUMP JUMPDEST SWAP2 POP POP SWAP3 SWAP2 POP POP JUMP JUMPDEST PUSH0 PUSH20 0xFFFFFFFFFFFFFFFFFFFFFFFFFFFFFFFFFFFFFFFF DUP3 AND SWAP1 POP SWAP2 SWAP1 POP JUMP JUMPDEST PUSH0 PUSH2 0x43E DUP3 PUSH2 0x415 JUMP JUMPDEST SWAP1 POP SWAP2 SWAP1 POP JUMP JUMPDEST PUSH2 0x44E DUP2 PUSH2 0x434 JUMP JUMPDEST DUP3 MSTORE POP POP JUMP JUMPDEST PUSH0 PUSH1 0x20 DUP3 ADD SWAP1 POP PUSH2 0x467 PUSH0 DUP4 ADD DUP5 PUSH2 0x445 JUMP JUMPDEST SWAP3 SWAP2 POP POP JUMP JUMPDEST PUSH0 PUSH4 0xFFFFFFFF DUP3 AND SWAP1 POP SWAP2 SWAP1 POP JUMP JUMPDEST PUSH2 0x485 DUP2 PUSH2 0x46D JUMP JUMPDEST DUP2 EQ PUSH2 0x48F JUMPI PUSH0 PUSH0 REVERT JUMPDEST POP JUMP JUMPDEST PUSH0 DUP2 CALLDATALOAD SWAP1 POP PUSH2 0x4A0 DUP2 PUSH2 0x47C JUMP JUMPDEST SWAP3 SWAP2 POP POP JUMP JUMPDEST PUSH0 PUSH2 0xFFFF DUP3 AND SWAP1 POP SWAP2 SWAP1 POP JUMP JUMPDEST PUSH2 0x4BC DUP2 PUSH2 0x4A6 JUMP JUMPDEST DUP2 EQ PUSH2 0x4C6 JUMPI PUSH0 PUSH0 REVERT JUMPDEST POP JUMP JUMPDEST PUSH0 DUP2 CALLDATALOAD SWAP1 POP PUSH2 0x4D7 DUP2 PUSH2 0x4B3 JUMP JUMPDEST SWAP3 SWAP2 POP POP JUMP JUMPDEST PUSH0 PUSH1 0xFF DUP3 AND SWAP1 POP SWAP2 SWAP1 POP JUMP JUMPDEST PUSH2 0x4F2 DUP2 PUSH2 0x4DD JUMP JUMPDEST DUP2 EQ PUSH2 0x4FC JUMPI PUSH0 PUSH0 REVERT JUMPDEST POP JUMP JUMPDEST PUSH0 DUP2 CALLDATALOAD SWAP1 POP PUSH2 0x50D DUP2 PUSH2 0x4E9 JUMP JUMPDEST SWAP3 SWAP2 POP POP JUMP JUMPDEST PUSH0 PUSH0 PUSH0 PUSH0 PUSH0 PUSH1 0xA0 DUP7 DUP9 SUB SLT ISZERO PUSH2 0x52C JUMPI PUSH2 0x52B PUSH2 0x3B3 JUMP JUMPDEST JUMPDEST PUSH0 PUSH2 0x539 DUP9 DUP3 DUP10 ADD PUSH2 0x3D6 JUMP JUMPDEST SWAP6 POP POP PUSH1 0x20 PUSH2 0x54A DUP9 DUP3 DUP10 ADD PUSH2 0x492 JUMP JUMPDEST SWAP5 POP POP PUSH1 0x40 PUSH2 0x55B DUP9 DUP3 DUP10 ADD PUSH2 0x4C9 JUMP JUMPDEST SWAP4 POP POP PUSH1 0x60 PUSH2 0x56C DUP9 DUP3 DUP10 ADD PUSH2 0x4C9 JUMP JUMPDEST SWAP3 POP POP PUSH1 0x80 PUSH2 0x57D DUP9 DUP3 DUP10 ADD PUSH2 0x4FF JUMP JUMPDEST SWAP2 POP POP SWAP3 SWAP6 POP SWAP3 SWAP6 SWAP1 SWAP4 POP JUMP JUMPDEST PUSH2 0x593 DUP2 PUSH2 0x434 JUMP JUMPDEST DUP2 EQ PUSH2 0x59D JUMPI PUSH0 PUSH0 REVERT JUMPDEST POP JUMP JUMPDEST PUSH0 DUP2 CALLDATALOAD SWAP1 POP PUSH2 0x5AE DUP2 PUSH2 0x58A JUMP JUMPDEST SWAP3 SWAP2 POP POP JUMP JUMPDEST PUSH0 PUSH1 0x20 DUP3 DUP5 SUB SLT ISZERO PUSH2 0x5C9 JUMPI PUSH2 0x5C8 PUSH2 0x3B3 JUMP JUMPDEST JUMPDEST PUSH0 PUSH2 0x5D6 DUP5 DUP3 DUP6 ADD PUSH2 0x5A0 JUMP JUMPDEST SWAP2 POP POP SWAP3 SWAP2 POP POP JUMP JUMPDEST PUSH0 PUSH8 0xFFFFFFFFFFFFFFFF DUP3 AND SWAP1 POP SWAP2 SWAP1 POP JUMP JUMPDEST PUSH2 0x5FB DUP2 PUSH2 0x5DF JUMP JUMPDEST DUP3 MSTORE POP POP JUMP JUMPDEST PUSH0 PUSH1 0x20 DUP3 ADD SWAP1 POP PUSH2 0x614 PUSH0 DUP4 ADD DUP5 PUSH2 0x5F2 JUMP JUMPDEST SWAP3 SWAP2 POP POP JUMP JUMPDEST PUSH32 0x4E487B7100000000000000000000000000000000000000000000000000000000 PUSH0 MSTORE PUSH1 0x11 PUSH1 0x4 MSTORE PUSH1 0x24 PUSH0 REVERT JUMPDEST PUSH0 PUSH2 0x651 DUP3 PUSH2 0x5DF JUMP JUMPDEST SWAP2 POP PUSH8 0xFFFFFFFFFFFFFFFF DUP3 SUB PUSH2 0x66B JUMPI PUSH2 0x66A PUSH2 0x61A JUMP JUMPDEST JUMPDEST PUSH1 0x1 DUP3 ADD SWAP1 POP SWAP2 SWAP1 POP JUMP JUMPDEST PUSH2 0x67F DUP2 PUSH2 0x46D JUMP JUMPDEST DUP3 MSTORE POP POP JUMP JUMPDEST PUSH2 0x68E DUP2 PUSH2 0x4A6 JUMP JUMPDEST DUP3 MSTORE POP POP JUMP JUMPDEST PUSH2 0x69D DUP2 PUSH2 0x4DD JUMP JUMPDEST DUP3 MSTORE POP POP JUMP JUMPDEST PUSH0 PUSH1 0xA0 DUP3 ADD SWAP1 POP PUSH2 0x6B6 PUSH0 DUP4 ADD DUP9 PUSH2 0x676 JUMP JUMPDEST PUSH2 0x6C3 PUSH1 0x20 DUP4 ADD DUP8 PUSH2 0x685 JUMP JUMPDEST PUSH2 0x6D0 PUSH1 0x40 DUP4 ADD DUP7 PUSH2 0x685 JUMP JUMPDEST PUSH2 0x6DD PUSH1 0x60 DUP4 ADD DUP6 PUSH2 0x694 JUMP JUMPDEST PUSH2 0x6EA PUSH1 0x80 DUP4 ADD DUP5 PUSH2 0x5F2 JUMP JUMPDEST SWAP7 SWAP6 POP POP POP POP POP POP JUMP INVALID LOG2 PUSH5 0x6970667358 0x22 SLT KECCAK256 DUP8 SWAP10 SLOAD CREATE2 PUSH30 0x21CC1A3F98F9FB526EE6380E0A98B3163B34EC00EFA2739F5D07C964736F PUSH13 0x634300081C0033000000000000 "},"methodIdentifiers":{"attest(bytes32,uint32,uint16,uint16,uint8)":"c015e9c6","attestorOf(bytes32)":"23753a26","repCount(address)":"d44d504f"}}}}}