{"project/src/RepRegistry.sol":{"RepRegistry":{"abi":[{"inputs":[],"name":"AlreadyAttested","type":"error"},{"inputs":[],"name":"EmptyCommitment","type":"error"},{"inputs":[],"name":"InvalidDuration","type":"error"},{"inputs":[],"name":"InvalidOwnership","type":"error"},{"anonymous":false,"inputs":[{"indexed":true,"internalType":"address","name":"developer","type":"address"},{"indexed":true,"internalType":"bytes32","name":"commitment","type":"bytes32"},{"indexed":false,"internalType":"uint32","name":"focusedSeconds","type":"uint32"},{"indexed":false,"internalType":"uint16","name":"testRuns","type":"uint16"},{"indexed":false,"internalType":"uint16","name":"debugLoops","type":"uint16"},{"indexed":false,"internalType":"uint8","name":"ownership","type":"uint8"},{"indexed":false,"internalType":"uint64","name":"completedAt","type":"uint64"}],"name":"RepAttested","type":"event"},{"inputs":[{"internalType":"bytes32","name":"commitment","type":"bytes32"},{"internalType":"uint32","name":"focusedSeconds","type":"uint32"},{"internalType":"uint16","name":"testRuns","type":"uint16"},{"internalType":"uint16","name":"debugLoops","type":"uint16"},{"internalType":"uint8","name":"ownership","type":"uint8"}],"name":"attest","outputs":[],"stateMutability":"nonpayable","type":"function"},{"inputs":[{"internalType":"bytes32","name":"commitment","type":"bytes32"}],"name":"attestorOf","outputs":[{"internalType":"address","name":"developer","type":"address"}],"stateMutability":"view","type":"function"},{"inputs":[{"internalType":"address","name":"developer","type":"address"}],"name":"repCount","outputs":[{"internalType":"uint64","name":"count","type":"uint64"}],"stateMutability":"view","type":"function"}],"evm":{"bytecode":{"linkReferences":{},"object":"6080604052348015600e575f5ffd5b506103778061001c5f395ff3fe608060405234801561000f575f5ffd5b506004361061003f575f3560e01c806323753a2614610043578063c015e9c614610088578063d44d504f1461009d575b5f5ffd5b61006b61005136600461026b565b5f602081905290815260409020546001600160a01b031681565b6040516001600160a01b0390911681526020015b60405180910390f35b61009b610096366004610298565b6100df565b005b6100c66100ab366004610305565b60016020525f908152604090205467ffffffffffffffff1681565b60405167ffffffffffffffff909116815260200161007f565b846100fd57604051635560fe6360e11b815260040160405180910390fd5b5f858152602081905260409020546001600160a01b031615610132576040516335d9080560e01b815260040160405180910390fd5b63ffffffff8416158061014d5750620151808463ffffffff16115b1561016b57604051637616640160e01b815260040160405180910390fd5b60018160ff161080610180575060038160ff16115b1561019e57604051630f1f82e960e31b815260040160405180910390fd5b5f8581526020818152604080832080546001600160a01b03191633908117909155835260019091528120805467ffffffffffffffff16916101de83610332565b82546101009290920a67ffffffffffffffff8181021990931691831602179091556040805163ffffffff8816815261ffff878116602083015286169181019190915260ff8416606082015242909116608082015286915033907febd88f7cf345d6df536610478a17e33331295b3ccf63b0f7ff9257cc7b06291b9060a00160405180910390a35050505050565b5f6020828403121561027b575f5ffd5b5035919050565b803561ffff81168114610293575f5ffd5b919050565b5f5f5f5f5f60a086880312156102ac575f5ffd5b85359450602086013563ffffffff811681146102c6575f5ffd5b93506102d460408701610282565b92506102e260608701610282565b9150608086013560ff811681146102f7575f5ffd5b809150509295509295909350565b5f60208284031215610315575f5ffd5b81356001600160a01b038116811461032b575f5ffd5b9392505050565b5f67ffffffffffffffff821667ffffffffffffffff810361036157634e487b7160e01b5f52601160045260245ffd5b6001019291505056fea164736f6c634300081c000a","opcodes":"PUSH1 0x80 PUSH1 0x40 MSTORE CALLVALUE DUP1 ISZERO PUSH1 0xE JUMPI PUSH0 PUSH0 REVERT JUMPDEST POP PUSH2 0x377 DUP1 PUSH2 0x1C PUSH0 CODECOPY PUSH0 RETURN INVALID PUSH1 0x80 PUSH1 0x40 MSTORE CALLVALUE DUP1 ISZERO PUSH2 0xF JUMPI PUSH0 PUSH0 REVERT JUMPDEST POP PUSH1 0x4 CALLDATASIZE LT PUSH2 0x3F JUMPI PUSH0 CALLDATALOAD PUSH1 0xE0 SHR DUP1 PUSH4 0x23753A26 EQ PUSH2 0x43 JUMPI DUP1 PUSH4 0xC015E9C6 EQ PUSH2 0x88 JUMPI DUP1 PUSH4 0xD44D504F EQ PUSH2 0x9D JUMPI JUMPDEST PUSH0 PUSH0 REVERT JUMPDEST PUSH2 0x6B PUSH2 0x51 CALLDATASIZE PUSH1 0x4 PUSH2 0x26B JUMP JUMPDEST PUSH0 PUSH1 0x20 DUP2 SWAP1 MSTORE SWAP1 DUP2 MSTORE PUSH1 0x40 SWAP1 KECCAK256 SLOAD PUSH1 0x1 PUSH1 0x1 PUSH1 0xA0 SHL SUB AND DUP2 JUMP JUMPDEST PUSH1 0x40 MLOAD PUSH1 0x1 PUSH1 0x1 PUSH1 0xA0 SHL SUB SWAP1 SWAP2 AND DUP2 MSTORE PUSH1 0x20 ADD JUMPDEST PUSH1 0x40 MLOAD DUP1 SWAP2 SUB SWAP1 RETURN JUMPDEST PUSH2 0x9B PUSH2 0x96 CALLDATASIZE PUSH1 0x4 PUSH2 0x298 JUMP JUMPDEST PUSH2 0xDF JUMP JUMPDEST STOP JUMPDEST PUSH2 0xC6 PUSH2 0xAB CALLDATASIZE PUSH1 0x4 PUSH2 0x305 JUMP JUMPDEST PUSH1 0x1 PUSH1 0x20 MSTORE PUSH0 SWAP1 DUP2 MSTORE PUSH1 0x40 SWAP1 KECCAK256 SLOAD PUSH8 0xFFFFFFFFFFFFFFFF AND DUP2 JUMP JUMPDEST PUSH1 0x40 MLOAD PUSH8 0xFFFFFFFFFFFFFFFF SWAP1 SWAP2 AND DUP2 MSTORE PUSH1 0x20 ADD PUSH2 0x7F JUMP JUMPDEST DUP5 PUSH2 0xFD JUMPI PUSH1 0x40 MLOAD PUSH4 0x5560FE63 PUSH1 0xE1 SHL DUP2 MSTORE PUSH1 0x4 ADD PUSH1 0x40 MLOAD DUP1 SWAP2 SUB SWAP1 REVERT JUMPDEST PUSH0 DUP6 DUP2 MSTORE PUSH1 0x20 DUP2 SWAP1 MSTORE PUSH1 0x40 SWAP1 KECCAK256 SLOAD PUSH1 0x1 PUSH1 0x1 PUSH1 0xA0 SHL SUB AND ISZERO PUSH2 0x132 JUMPI PUSH1 0x40 MLOAD PUSH4 0x35D90805 PUSH1 0xE0 SHL DUP2 MSTORE PUSH1 0x4 ADD PUSH1 0x40 MLOAD DUP1 SWAP2 SUB SWAP1 REVERT JUMPDEST PUSH4 0xFFFFFFFF DUP5 AND ISZERO DUP1 PUSH2 0x14D JUMPI POP PUSH3 0x15180 DUP5 PUSH4 0xFFFFFFFF AND GT JUMPDEST ISZERO PUSH2 0x16B JUMPI PUSH1 0x40 MLOAD PUSH4 0x76166401 PUSH1 0xE0 SHL DUP2 MSTORE PUSH1 0x4 ADD PUSH1 0x40 MLOAD DUP1 SWAP2 SUB SWAP1 REVERT JUMPDEST PUSH1 0x1 DUP2 PUSH1 0xFF AND LT DUP1 PUSH2 0x180 JUMPI POP PUSH1 0x3 DUP2 PUSH1 0xFF AND GT JUMPDEST ISZERO PUSH2 0x19E JUMPI PUSH1 0x40 MLOAD PUSH4 0xF1F82E9 PUSH1 0xE3 SHL DUP2 MSTORE PUSH1 0x4 ADD PUSH1 0x40 MLOAD DUP1 SWAP2 SUB SWAP1 REVERT JUMPDEST PUSH0 DUP6 DUP2 MSTORE PUSH1 0x20 DUP2 DUP2 MSTORE PUSH1 0x40 DUP1 DUP4 KECCAK256 DUP1 SLOAD PUSH1 0x1 PUSH1 0x1 PUSH1 0xA0 SHL SUB NOT AND CALLER SWAP1 DUP2 OR SWAP1 SWAP2 SSTORE DUP4 MSTORE PUSH1 0x1 SWAP1 SWAP2 MSTORE DUP2 KECCAK256 DUP1 SLOAD PUSH8 0xFFFFFFFFFFFFFFFF AND SWAP2 PUSH2 0x1DE DUP4 PUSH2 0x332 JUMP JUMPDEST DUP3 SLOAD PUSH2 0x100 SWAP3 SWAP1 SWAP3 EXP PUSH8 0xFFFFFFFFFFFFFFFF DUP2 DUP2 MUL NOT SWAP1 SWAP4 AND SWAP2 DUP4 AND MUL OR SWAP1 SWAP2 SSTORE PUSH1 0x40 DUP1 MLOAD PUSH4 0xFFFFFFFF DUP9 AND DUP2 MSTORE PUSH2 0xFFFF DUP8 DUP2 AND PUSH1 0x20 DUP4 ADD MSTORE DUP7 AND SWAP2 DUP2 ADD SWAP2 SWAP1 SWAP2 MSTORE PUSH1 0xFF DUP5 AND PUSH1 0x60 DUP3 ADD MSTORE TIMESTAMP SWAP1 SWAP2 AND PUSH1 0x80 DUP3 ADD MSTORE DUP7 SWAP2 POP CALLER SWAP1 PUSH32 0xEBD88F7CF345D6DF536610478A17E33331295B3CCF63B0F7FF9257CC7B06291B SWAP1 PUSH1 0xA0 ADD PUSH1 0x40 MLOAD DUP1 SWAP2 SUB SWAP1 LOG3 POP POP POP POP POP JUMP JUMPDEST PUSH0 PUSH1 0x20 DUP3 DUP5 SUB SLT ISZERO PUSH2 0x27B JUMPI PUSH0 PUSH0 REVERT JUMPDEST POP CALLDATALOAD SWAP2 SWAP1 POP JUMP JUMPDEST DUP1 CALLDATALOAD PUSH2 0xFFFF DUP2 AND DUP2 EQ PUSH2 0x293 JUMPI PUSH0 PUSH0 REVERT JUMPDEST SWAP2 SWAP1 POP JUMP JUMPDEST PUSH0 PUSH0 PUSH0 PUSH0 PUSH0 PUSH1 0xA0 DUP7 DUP9 SUB SLT ISZERO PUSH2 0x2AC JUMPI PUSH0 PUSH0 REVERT JUMPDEST DUP6 CALLDATALOAD SWAP5 POP PUSH1 0x20 DUP7 ADD CALLDATALOAD PUSH4 0xFFFFFFFF DUP2 AND DUP2 EQ PUSH2 0x2C6 JUMPI PUSH0 PUSH0 REVERT JUMPDEST SWAP4 POP PUSH2 0x2D4 PUSH1 0x40 DUP8 ADD PUSH2 0x282 JUMP JUMPDEST SWAP3 POP PUSH2 0x2E2 PUSH1 0x60 DUP8 ADD PUSH2 0x282 JUMP JUMPDEST SWAP2 POP PUSH1 0x80 DUP7 ADD CALLDATALOAD PUSH1 0xFF DUP2 AND DUP2 EQ PUSH2 0x2F7 JUMPI PUSH0 PUSH0 REVERT JUMPDEST DUP1 SWAP2 POP POP SWAP3 SWAP6 POP SWAP3 SWAP6 SWAP1 SWAP4 POP JUMP JUMPDEST PUSH0 PUSH1 0x20 DUP3 DUP5 SUB SLT ISZERO PUSH2 0x315 JUMPI PUSH0 PUSH0 REVERT JUMPDEST DUP2 CALLDATALOAD PUSH1 0x1 PUSH1 0x1 PUSH1 0xA0 SHL SUB DUP2 AND DUP2 EQ PUSH2 0x32B JUMPI PUSH0 PUSH0 REVERT JUMPDEST SWAP4 SWAP3 POP POP POP JUMP JUMPDEST PUSH0 PUSH8 0xFFFFFFFFFFFFFFFF DUP3 AND PUSH8 0xFFFFFFFFFFFFFFFF DUP2 SUB PUSH2 0x361 JUMPI PUSH4 0x4E487B71 PUSH1 0xE0 SHL PUSH0 MSTORE PUSH1 0x11 PUSH1 0x4 MSTORE PUSH1 0x24 PUSH0 REVERT JUMPDEST PUSH1 0x1 ADD SWAP3 SWAP2 POP POP JUMP INVALID LOG1 PUSH5 0x736F6C6343 STOP ADDMOD SHR STOP EXP "},"methodIdentifiers":{"attest(bytes32,uint32,uint16,uint16,uint8)":"c015e9c6","attestorOf(bytes32)":"23753a26","repCount(address)":"d44d504f"}}}}}